:020000022000DC
:1070000040700020CDB403000B740400A1B4030051
:10701000A1B40300A1B40300A1B403000000000068
:1070200000000000000000000000000041AD03006F
:10703000A1B4030000000000DDAC0300A1B4030014
:10704000FDAD03003D810400FDAD0300FDAD030077
:10705000FDAD0300FDAD0300FDAD0300FDAD03007C
:10706000F3800400FDAD0300FDAD030027810400A3
:10707000FDAD0300FDAD0300FDAD0300FDAD03005C
:10708000FDAD0300FDAD0300FDAD0300FDAD03004C
:10709000FDAD0300FDAD0300FDAD0300FDAD03003C
:1070A000FDAD0300FDAD0300FDAD0300FDAD03002C
:1070B000FDAD0300FDAD0300FDAD0300FDAD03001C
:1070C000FDAD0300FDAD0300FDAD0300FDAD03000C
:1070D000FDAD0300FDAD0300FDAD0300FDAD0300FC
:1070E000FDAD0300FDAD0300FDAD0300FDAD0300EC
:1070F000FDAD0300FDAD0300FDAD0300FDAD0300DC
:1071000053B94AB9002908BF00281CBF4FF0FF310E
:107110004FF0FF3000F00CB8ADF1080C6DE904CE73
:107120000CF0BAFFDDF804E0DDE9022304B070479B
:10713000704700BF3EB5164C207A8DF80100E0790B
:107140008DF80000A079ADF804006079ADF8020078
:10715000684606F08BFE08B1B32114E00D480068C4
:10716000029002A80FF06CFC08B1B7210BE0A07CE4
:1071700006F0C4FE08B1BA2105E0607C06F0B8FE56
:10718000002803D0BB21032000F0A0FA3EBD000080
:1071900074110020787702003EB504460068C01DD7
:1071A00020F00700206000200090019002900878F5
:1071B0008DF8010048788DF8020088788DF803007A
:1071C000C8788DF8040008798DF80500C87B8DF823
:1071D0000600487D8DF80800887D8DF80900C87D7F
:1071E0008DF80A00087E8DF80B000848407910B130
:1071F00008798DF807000AB1002000E02068694690
:1072000000F0DCFE2168084420603EBD2000002024
:107210002DE9F8430446887816460D4688B1206863
:10722000C01C20F003002060E97BEA786B891144E0
:10723000CAB2A97806B1002001F026FA21680844F4
:107240002060814FF87898B1687A88B1387908B1B0
:10725000FF2200E025222068C01C20F003002060EF
:10726000697A06B1002001F0A3FA21680844206081
:10727000287B90B1A87818B9F87870B1687A60B1B5
:107280002068C01D20F007002060297B06B1002087
:1072900002F0B0F92168084420606C48036873B1BB
:1072A000287960B12068C01C20F0030020606A7B50
:1072B000297906B100209847216808442060644875
:1072C00002686AB1A87B58B12068C01C20F0030096
:1072D0002060A97B06B10020904721680844206007
:1072E0005C48D0F800C0BCF1000F11D0E87B78B149
:1072F0002068C01C20F003002060A97C00916B7CFA
:107300002A7CE97B06B10020E04721680844206020
:107310007879B94678B1287968B12068C01C20F026
:10732000030020602A7D297906B1002001F066FA69
:10733000216808442060687E80B12068C01D20F06C
:1073400007002060697E804606B100204FF48772F6
:107350000DF00FFC21680844206001E04FF00008A8
:10736000A87E78B12068C01D20F007002060A97EAB
:10737000074606B10020FB220DF0FBFB2168084404
:10738000206000E0002726B9FB223946404608F07D
:10739000F7FEE87E68B3287F58B32068C01D20F050
:1073A00007002060E97E06B100204FF482720DF0E4
:1073B000E0FB2768334638442060C01C20F00300FF
:1073C00095F81CC040F004022260A87D297E084484
:1073D000C1B2604601F044FA21680844206066B9F1
:1073E000384608F0EDFEE87E4FF4807108F000FFAB
:1073F00003E016B9002008F0E3FED9F80C1031B113
:1074000016B92168C9F80C10206828302060687F00
:10741000002817D0206842F21077C01D20F0070026
:107420002060697F06B100203A460DF0A2FB0146BC
:107430002068002E0144216004D13946BDE8F8439C
:1074400008F00ABFBDE8F8832000002030000020CB
:10745000380000203400002010B528B1142204495F
:1074600010F08FFA002010BD6FF0150010BD000065
:10747000987702002DE9F0416FF02C06002871D1B9
:10748000534C607810B1B011BDE8F081002917D0DD
:107490006FF01500002AF7D04E4B17299D7861D266
:1074A000DFE801F0900C0F12224A52692855586407
:1074B0002D323F456E71808376797C00107818708C
:1074C00075E01078587072E091780029DCD0D1789E
:1074D0000029D9D011781B29D6D351781B29D3D3B1
:1074E0001068C3F8050062E01178DA789142CBD3D6
:1074F00099705CE01178A942C6D8D97057E011782C
:10750000A942C1D8D97352E011780029BCD0517872
:10751000F929B9D80029B7D01088188290789874C2
:1075200045E01078D874107807F0B0F83FE0117893
:107530000029A9D019753AE0E17811B11178022932
:10754000A2D31078587232E0108858812FE010785A
:1075500018712CE061790029117804D0002993D0AA
:10756000597324E02EE002298ED3F9E71178082917
:107570008AD899731BE01188FF2985D8197316E002
:107580001078587513E011780E29B5D899750EE06A
:10759000107858760BE01078987608E01088A3F8F9
:1075A0001B0004E01078D87501E0107818760122ED
:1075B000084900200CF0C0FEB0F5803F04DB6FF0FE
:1075C0000B0061E730465FE70121A1705CE7000036
:1075D000200000207411002010B5064C607820B106
:1075E00006F0A8FF20780CF009FC01F08DF90020CE
:1075F000607010BD2000002070B50C46050002D060
:107600000CB1600702D06FF0150070BD00F0DAF821
:10761000A8B128460CF0B8FB0A4D00220A49287090
:1076200020460CF089FE0FF04AFF2878E96806F042
:107630005DFFFFF77FFD01206870002070BD4FF0F7
:10764000FF3070BD200000207411002030B589B0DB
:1076500005000CD00CF040FB4FF0FF3420B10BF0D4
:10766000E3FCB0F5FA7F05D9204609B030BD6FF0D4
:107670001500FAE7114C1248A56000F07FFB0020CE
:107680006070A070E0702071E060607101461E22A1
:10769000684610F0F0F91E220A49684610F071F9A8
:1076A0001E226946084810F06CF9EFF3108472B698
:1076B00001F038F904B962B60020D6E720000020B6
:1076C000357102007A770200741100200EB572B68F
:1076D000154A9568DDB1002203466E460A2403E090
:1076E000B0FBF4F0521CD2B20028F9D1B0540AE039
:1076F000D8B2B0FBF4F7B3FBF4F304FB1700521E4F
:10770000D2B23030B054002AF2D13046A847BFF38D
:107710004F8F06480168064A01F4E0611143016099
:10772000BFF34F8F00BFFDE7200000200CED00E00D
:107730000400FA05064810B581784078014302D06C
:107740004FF0FF3010BD06F007FF002010BD000015
:1077500020000020074810B581784278114302D0FC
:107760004FF0FF3010BD0121C17006F007FF00206F
:1077700010BD000020000020010001010100001BDD
:107780001B0302031F000802000001490000010062
:107790000000000000000000C593BAA9144D8D053B
:1077A000304E9B92D7711EE8AA02503C014A5268A3
:1077B00010470000780F0020014A9268104700002F
:1077C000780F00200448416819B1806808B1012091
:1077D0007047002070470000780F002002490DC854
:1077E00081E80D0000207047780F00207CB52C4DFB
:1077F0000646001D28602A4801F08EFC0446022837
:1078000004D0042C07D0082C44D047E0244930464B
:107810000CF0D7FD42E02878092802D0252816D19F
:1078200010E005213E200CF0BCFD80B9B5F8030046
:10783000ADF8000001A968460CF000FF0028DAD07E
:1078400053210CE01A213E200CF0ABFD50B114493D
:10785000304600F02BF8B0F5817F12D3722108205A
:10786000FFF734FF0F4801A900680090B5F8050044
:10787000ADF8000068460CF0EFFE0028BBD0652193
:10788000EDE70028B7D0B17830780CF08AFD0028F9
:10789000B1D003E0024930460CF0C1FD20467CBD6A
:1078A000840F0020A8780200000011002DE9F84F95
:1078B0000C46054691F800C00D22042103233E2604
:1078C0000520FF274FF00C094FF0080B4FF0070E73
:1078D0004FF0010ABCF1330F77D2DFE80CF07629C4
:1078E0002E33BF76777B8085888A8EB6BB1A763634
:1078F000763B92B0FDFCFB76FA76F9F8F7F676F572
:10790000F4F3F2F1F0EFEEEDECEBEAEAE9E8E7E6AA
:10791000E5000E202070B4F803008338B0F5005F56
:1079200003D03121C720FFF7D1FE06206070BBE1F4
:1079300084F8009084F801B0B6E11A20207084F831
:1079400001A0B1E126700220ADE126701220607026
:107950000B20A8E1292000F0D1F920B126702220C7
:10796000607029209FE10A2000F0C8F920B121466B
:1079700028460CF08BFD53E12E7085F802A0E078CC
:10798000E87020792871A088000A6871A079A87130
:10799000E07900F00100E871A068A860A089A881E2
:1079A000A07EA873608B000AE873207F2874A08BE8
:1079B000000A6874A07FA874E08B000AE87494F849
:1079C00020002875132068702BE182E12670617019
:1079D000142068E1267084F80190A17064E126709B
:1079E0000A206070A3705FE1267062705BE1207016
:1079F00001E084F800B0617056E1302020706370BF
:107A000052E12E7085F802E0A078E8706088000AE4
:107A1000287120796871A088000AA871A079E8719E
:107A2000E088000A2872207A68722089000AA87209
:107A3000A07AE8726089000A28730B20F1E02670B2
:107A40000620607084F802902EE1A11C28460CF0FC
:107A500051FDE5E057202070022067E72E70AA70E4
:107A6000E278EA70B4F80D20AA802279AA71D4F8DD
:107A70000520C5F80720B4F80920A5F80B20E27B03
:107A800028466A73E11C227C82738A7BC2738A7ED9
:107A900002744A7A4274B1F81120ADF80020428293
:107AA000CA7C02754A6918E0FAE007E1F0E0EAE012
:107AB000F2E0C4E0D2E0C9E0DCE0D3E0C1E0DDE028
:107AC000B8E0B2E083E07EE070E06AE065E060E0AC
:107AD00036E024E014E01DE017E0C0F815200A8B22
:107AE000A0F819200A7AC2760E7AE52E00D3E52690
:107AF00032461C301C310FF044FF1A36F0B28FE0D2
:107B0000267084F801A01120CDE026700620607058
:107B10001220C8E02670092060701320C3E02E7088
:107B2000242000F0EBF808B1242049E00E20A870D2
:107B30000F263246A11CE81C0FF023FF701C6FE0DB
:107B40002E70252000F0DAF840B12520A8700A2612
:107B50003246A11CE81C0FF014FF0FE00F20A870A4
:107B60006188A5F80310217969716179A971A179FA
:107B7000E971A17A2972E17A69720726A819E27A75
:107B800004F10C01C01C0FF0FCFEE07A761C3044BE
:107B900046E026706370102085E02670607020201B
:107BA00081E026700920607021207CE02E70262064
:107BB00000F0A4F818B12620A8701726B9E71820FD
:107BC000A8701326B5E72670617027206BE02E7031
:107BD0002820A870D4F80210002605F10308C5F883
:107BE0000310304615E000BF08EB0600A119071D81
:107BF00051F8060F38608888B8807A79B81D891DD9
:107C00000FF0BFFE7879B61D304486B209F101004D
:107C1000C0B298F8031081464945E5D8761DB0B248
:107C200080B36870801C86B245E026701D206070AD
:107C3000192038E0267084F801E01A2033E026701D
:107C400032E026701420607022202CE02670217C07
:107C50000F2000EB410060701D2024E0267063704F
:107C60001E2020E02670207D132101EB4000607073
:107C70001B2018E0267063701C2014E026706070D2
:107C80001F2010E010E027700B206070A2200AE097
:107C900027706070A32006E027706070A42002E0C7
:107CA000277062708020A07066782146B61C32462C
:107CB00028460FF066FE3046BDE8F88F2F70812011
:107CC000A870E81CD4F8031028220FF05AFE2920CF
:107CD000A7E740F2872125E6402803D2401EC1B223
:107CE000054805E0FF2805D04038C1B202480830F9
:107CF0000CF02FBC012070473C000020401EC1B298
:107D000001480CF026BC00004C000020024902682B
:107D10000A614068486170473C00002005490268DC
:107D20000A60406842F48C220A60034A10434860AB
:107D3000704700003C000020F807400207484FF061
:107D4000FF3100220160C90C416000F108011F20D1
:107D50000A604A600831C1E9000270473C00002017
:107D600010B5FFF7EBFF0EF0D3FF044602480068A2
:107D700000B18047204610BD540000200149086032
:107D800070470000540000202DE9F04104464FF0F8
:107D90008050D0F8A0701F4D1E4E103D10220021C3
:107DA00020460FF068FE1022002104F110000FF0B1
:107DB00062FE2868401C08D16868401C05D1A8688C
:107DC000401C02D1E868401C07D028686A68A9688E
:107DD000EB6820616261A161E361002000F076FE42
:107DE0008743F80713D13068401C08D17068401CE5
:107DF00005D1B068401C02D1F068401C07D0326841
:107E00007068B168F36822606060A160E360002080
:107E1000BDE8F0819000001038B54FF08051044665
:107E20002248D1F8A010214D0268143D521C04D103
:107E30004268D2431204120C35D0C90733D001680E
:107E40004068ADF80000C4F80110BDF80000A4F8C7
:107E50000500A07940F0C000A0712868401C0CD03B
:107E60006868401C09D0A868401C06D0E868401C1F
:107E700003D0002000F02AFE40B110220021E01DB6
:107E80000FF0F9FD01202070002038BD2A686968D4
:107E9000A868EB68C4F80720C4F80B10C4F80F00FA
:107EA000C4F81330EEE70020EDE70000A400001056
:107EB00002210180418000210171C52141714BF6F1
:107EC0009321C1800149816000207047A9144D8D24
:107ED0002DE9F041114D0A2255F82230CBB11E791F
:107EE000FF2E12D00021501E12D455F8204024B18C
:107EF0002779B74201D1A4782144401EF5D5FF2946
:107F000006D9FA211720FFF7E1FB0020187100E0E5
:107F10001971521EE0D5BDE8F081000088100020E4
:107F200070B50546194850F8214064B3B5F5706F37
:107F300004D340F27E211720FFF7C8FB29462046D4
:107F40000CF072FD0146FF2804D02046BDE87040C9
:107F50000CF091BDA078B5FBF0F100FB1150C6B25A
:107F600032464FF6F07120460CF072FD0246FF28B3
:107F700009D0B24201D00020E07029462046BDE879
:107F800070400CF04BBD002070BD00008810002038
:107F90000246094810B550F82140114620460CF021
:107FA00043FD0146FF2804D02046BDE810400CF0F8
:107FB00062BD002010BD0000881000202DE9FF41A7
:107FC0000C460646897860780144FF2902D940F2C0
:107FD0005B1104E02178814204D940F25F1117203F
:107FE000FFF774FB03961EB10025584F15B108E04A
:107FF0000125FAE73878022803D021460020FFF750
:10800000DDFF0DB1002000E003A800F037F9504D6E
:108010006378D5E90002A968009063F31F62CDE997
:1080200001216946002000F053F9D5E90302A37845
:108030006969009063F31F62CDE90121694601205F
:1080400000F046F9D5E90602E378296A009063F367
:108050001F62CDE901216946022000F039F9D5E916
:1080600009022379E96A009063F31F62CDE90121D7
:108070006946032000F02CF9D5E90C026379A96B5D
:10808000009063F31F62CDE901216946042000F0EE
:108090001FF9D5E90F10A3796A6C63F31F60CDE96E
:1080A00000100292A07918B106F0E6FAADF80400CB
:1080B0006946052000F00CF9E379D5E91301AA6CB3
:1080C00063F31F600092CDE901016946062000F0CC
:1080D000FFF8237AD5E916016A6D63F31F600092F9
:1080E000CDE901016946072000F0F2F8D5E9181042
:1080F000637AAA6E63F31F60CDE9001002926946AD
:10810000082000F0E5F8D5E91B10A37A6A6F63F345
:108110001F60CDE9001002926946092000F0D8F8EE
:10812000D5E91E10E37AD5F8802063F31F60CDE90E
:108130000010029269460A2000F0CAF800F00AF81E
:10814000786804B0801BBDE8F08100005800002072
:10815000A083020010B50E4C2078012813D003280C
:1081600002D04FF4A37105E0D4E90101814204D0AB
:1081700040F249111720FFF7A9FAFFF7A9FE0420E2
:108180002070002010BD02202070606810BD00002B
:108190005800002010B5044680790E4951F820009F
:1081A000A8B14FF6F073E179827891420FD24A1C60
:1081B000E27100EB410252899A42F4D000EB410295
:1081C0005289A2800CF057FC2060002010BD0220D4
:1081D00010BD0000881000202DE9F04107464FF641
:1081E000FF703880124850F82140ECB1A578207912
:1081F000B0FBF5F105FB110632464FF6F071204653
:108200000CF026FC0246FF280ED0A81B1044B0FB41
:10821000F5F105FB11002179084481B2398020462F
:10822000BDE8F0410CF0FABB0020BDE8F081000091
:10823000881000202DE9F04107460F4850F82150E2
:10824000394628460CF0F0FB0446FF2812D0D5F83A
:10825000060021464FEA304628460CF00CFC014649
:108260003846B04705EB44014FF6F07048810020D6
:10827000BDE8F0810320FBE78810002010B5124A0A
:10828000D8B11178022902D04FF4837106E003219E
:10829000117001684B0704D040F20B111720FFF753
:1082A00015FA536851601944916001602C22BDE8B1
:1082B0001040002105480FF0DEBB012010700020A7
:1082C0009060506010BD0000580000208810002011
:1082D0002DE9F041304D2E78012E04D0032E02D02E
:1082E0004FF4907136E08A79082A02D94FF49171DF
:1082F00030E0CB79002B4DD05F006B680A37FC185B
:10830000022A01D9134601E04FF002031C44A4F1F4
:10831000010401D9134601E04FF00203A3F1010368
:1083200024EA03048B881344A2F10102A3F10103A0
:1083300023EA02034FF6FF72934202D340F22D115B
:1083400008E0032E22D1154EE21B56F8207027B10B
:108350004FF499711720FFF7B9F946F820201380E0
:10836000C87990700120D070087A107108684FF6B3
:10837000F076000CD08008881081002003E002EB2A
:108380004007401C7E81CF798742F8D8C87900FB2E
:1083900003406860BDE8F08158000020881000208C
:1083A0004B6103006003080000000000355F03001C
:1083B000F003080000000000A5560300500108006B
:1083C000FF0000003173030090000800FF00000070
:1083D00099E60200A800080001000000877403006D
:1083E00000000800FF0000008B74030080000800FC
:1083F000FF000000A36303007800080002000000F3
:10840000DB610300F001080000000000F9630300D5
:1084100020010800FF00000079640300000108004B
:10842000000000002DE9FF4F244C064681B0206873
:108430009A46934650B1017AB14203D9406850F848
:10844000260038B1032005B0BDE8F08FA521182023
:10845000FFF73CF9194602980CF048FB8046584655
:108460000E990CF039FB054608EB0500001D87B29C
:108470002068A146394600680CF06BFA04001AD057
:10848000678025802946201D0E9D07465A460923F0
:1084900000950CF0D4F92088414638440A23029A0A
:1084A000CDF800A00CF0CBF9D9F80000406840F8F6
:1084B00026400020C7E70120C5E700006400002037
:1084C00070B5144C23688BB1197A814212D95A685D
:1084D00052F8201071B1002542F820504A881868DF
:1084E0000CF08FFA216800200A7A0BE0C6211820D0
:1084F000FFF7ECF8032070BD4B6853F8203033B918
:10850000401CC0B28242F7D808680CF06FFA002015
:1085100070BD0000640000202DE9F0410D4604000C
:1085200090464FF0000606D00027A00705D0862110
:108530001820FFF7CBF80127F7E7CDB1114600204F
:108540000CF038FA0C3000EB85068FB90A4F04F1B5
:108550000C00AA003C602572606000EB8500206082
:10856000002160680FF087FA414638680CF022FA63
:108570003046BDE8F0810000640000200A4910B5D3
:1085800002460968002059B10B7A934207D949681D
:1085900051F82210002902D031F8040B084410BD14
:1085A000FA211820FFF792F864000020FEB5064675
:1085B0004418C81800210DE05EB1009101910291AC
:1085C000E51800952560019F67609DF80870277287
:1085D0002C461844521E1204120CEDD1002E11D05C
:1085E00000910191029108490A6800924A6801923B
:1085F000097A8DF8081000992160019961609DF851
:1086000008102172FEBD00008A7B03002DE9F041B5
:108610001C4E456804460022A1B10120607070889C
:108620008308002004EB400104EB80060A830B84DE
:1086300000FB035171602118401C0A750428F1D316
:10864000BDE8F0816270002004EB40010A830A84D7
:1086500004EB80014A602118401C0A750428F3D3FA
:1086600070880CF016FB074670880CF019FB6560EB
:1086700020842918A1606784E560A0842161E784D3
:10868000DEE70000680000202DE9F04768B1002611
:108690001144DFF89C80CFB2002488F80070810775
:1086A00005D04E210920FFF711F80126F0E71F2B16
:1086B00004D84FF6FF7101EA830509E05900FF2B4A
:1086C0000CD903F1FF02B2EB430F00D211468DB279
:1086D0004FF6FC71ED1C0D4036B109E07C22B2EB87
:1086E000430FF4D37C21F2E7C8F80400A8F8025045
:1086F00007EB870104EBC10200214FF001090FE0F5
:108700005EB9D8F8044001EB810300EB020C04F8D9
:10871000339004EBC303C3F804C0491C2A44C9B214
:10872000B942EDD3D21D22F00700BDE8F08700006A
:108730006800002070B511480024214602780CE042
:10874000456801EB810315F8333023B101EB81015A
:1087500005EBC10403E0491CC9B29142F0D344B116
:108760000025A57001212046FFF750FF2570204607
:1087700070BDA9210920FEF7A9FF000068000020B4
:10878000044810B5408884080CF08AFA844200D36B
:10879000204610BD68000020014840787047000066
:1087A0007000002001484068704700007000002001
:1087B0002DE9F8430C46074616462E2110460D4675
:1087C00022460CF085F8804657B13846414632467D
:1087D0002B4600940CF033F8034847600470467051
:1087E0004046BDE8F883000070000020024842784F
:1087F00001784068FFF7DCBF700000202DE9F843E6
:108800000F4604461646F72005210CF061F84FF696
:10881000FC71C01C00EA0105DCB1A00703D0952162
:108820001920FEF753FF0D48804604608580002420
:108830000DE0B8F80400D8F80010F72204FB00108F
:108840002946052300960BF0FAFF641CA4B2BC4233
:10885000EFD307FB05F0BDE8F883000078000020A7
:108860007FB50E4602991D464A0701D0890703D0FD
:108870001F214C20FEF72AFF01464FF4877200208B
:108880000CF077F9044606FB04F10DB1002000E07E
:1088900002A80CF08FF8002D03D10349029AC1E918
:1088A000002404B070BD000080000020024B01468F
:1088B000D3E900020CF0A5B88000002030B50D49C6
:1088C00001204860821EC1F808230B4988600023FC
:1088D000C1F80032C1F80823084C2360251D286028
:1088E0008860C1F8082323602860064904480860AE
:1088F00030BD000000E0004000F0004000F5004006
:108900000000F63F08F5014010B5FFF7D7FF0CF067
:10891000A0FA03490148086010BD00000000F63FBE
:1089200008F5014010B5FFF7C9FF0CF092FA00F00E
:1089300081F803490148086010BD00000000F63FBF
:1089400008F501402DE9F84F824637480EF07EFFCA
:10895000DFF8D4B028B101260BF10100FF2101702E
:1089600000E000264FF48075304C4FF000082F1DBA
:1089700001216160C4F80081C4F80481C4F804A531
:108980002160DFF8AC901CE0D9F80000C00618D5D3
:108990000E200CF06DFAEFF31080009072B60321F8
:1089A0002046C4F8041329460CF06FFA30B9394652
:1089B00020460CF06AFA08B90EF0DFFF009800B903
:1089C00062B6294620460CF060FA28B9394620469E
:1089D0000CF05BFA0028D7D0394620460CF055FA47
:1089E0000028C5D10025E6B99BF801008DF80000EC
:1089F000009800909DF8000008B1012500E00025D6
:108A00000BF1010181F800800321C4F80813C4F8B8
:108A10000481C4F800810E200CF02AFA02480EF0FE
:108A20002CFF2846BDE8F88F2002002000E000401F
:108A300010ED00E010B506480EF01BFF18B1302114
:108A40001D20FEF743FE02480021417010BD0000CA
:108A50002002002005498A8E824218BF70470020FC
:108A600081F832004FF6FF7088867047921100201F
:108A70000A4A10B1012807D00EE0507860B1D2F850
:108A800002000860D08804E0107828B1906808607F
:108A900090898880012070470020704722020020C2
:108AA000094A012340B1012818BF704713700868B4
:108AB000906088889081704753700868C2F80200FF
:108AC0008888D0807047000022020020064910B13B
:108AD000012803D006E0487810B903E0087808B10F
:108AE00001207047002070472202002001490876CB
:108AF00070470000EA0800200246074810B50078D9
:108B000038B10648417821B1801C05F0F3FD012001
:108B100010BD002010BD000018020020C811002068
:108B200004494A78824286BF084490F842010020F6
:108B300070470000C811002004494A78824286BF6D
:108B4000084490F84A01002070470000C811002036
:108B500004494A78824286BF01EB0010823000202F
:108B600070470000C8110020054A01EB410102EBEB
:108B700041010268C1F80A218088A1F80E017047FE
:108B8000C81100202DE9F041134C064600256078FD
:108B9000002898BFBDE8F081C0B2A84214D904EB08
:108BA0000510823010D0611991F8421161B905EBBE
:108BB000450104EB410707F5857132460CF09AF93F
:108BC000B7F80E01A7F80E01681CC5B26078A8427C
:108BD000E2D8BDE8F0810000C811002004494A78BD
:108BE000824286BF01EB0010801C0020704700000D
:108BF000C811002008494A78824203D90A1892F81D
:108C000042210AB10020704700EB400001EB400018
:108C100000F5857070470000C811002010B54FF4B2
:108C2000C572002105480EF026FF0548002101709D
:108C300041704FF46171418010BD0000C8110020E7
:108C40001802002070B50C46054605F079FE05F0C7
:108C500069FD0A482A46007868B1094B597851B134
:108C6000002C0CBF03F18200981C05F043FD05F0B9
:108C700083FD012070BD002070BD0000180200209F
:108C8000C81100200B4B93F801C084459CBF002005
:108C90007047184490F80201C0EBC000184490F8E7
:108CA00052310B70D0F853111160B0F85701908019
:108CB00001207047C811002010B500F083F8082883
:108CC00008BF10BD01460B4A002092F801C0BCF15C
:108CD000000F0CD9131893F802318B4203D10828E6
:108CE00018BF10BD03E0401CC0B28445F2D8082074
:108CF00010BD0000C81100200246064810B500EB68
:108D000001100121823005F0F5FCBDE8104005F0AE
:108D100033BD0000C81100200148408870470000A2
:108D20001802002070B5012516462C4600F04AF8BE
:108D3000082821D0144900234A78002A1CD900BFF2
:108D400001EB030C9CF802C1844518D1082B13D009
:108D5000002E18BF3370487898420DD901EB0310EC
:108D600010F1020F08D0C81890F84A4190F83A0163
:108D700001280CBF0125002545EA040070BD5B1CDD
:108D8000DBB29A42DCD8F7E7C811002006494A78DE
:108D9000824206D9084490F83A01002804BF012015
:108DA0007047002070470000C8110020014840783B
:108DB0007047000018020020014948707047000009
:108DC000180200202DE9F00F204B0246002093F8F6
:108DD0000080B8F1000F35D90F784E788D78CC78B7
:108DE00091F804C091F805A0C0EBC001194491F8B6
:108DF000529191F853B182EA090987EA0B0BD944E1
:108E000091F854B186EA0B0BD94491F855B185EA33
:108E10000B0BD94491F856B184EA0B0BD94491F865
:108E200057B191F858118CEA0B0BD9448AEA010129
:108E300011EB090F04BFBDE8F00F7047401CC0B232
:108E40008045D1D8BDE8F00F08207047C811002038
:108E500070B501260446002571B1584A012932D067
:108E600002297BD0032918BF70BD04F1CE01BDE8F3
:108E70007040CD300CF031B94FF47C7200210EF00F
:108E8000FAFD84F8CD604E4AC4F816210722C4F8D2
:108E90001A2194F81621FE2122F0040284F81621EA
:108EA00084F84E117F2184F8C110464904F1A800CE
:108EB000C4F8B0100021C0F8B050C0E90011202063
:108EC00084F8640370BDA4F8F65284F8EB5260692C
:108ED0003D49B2FBF0F20144B1FBF0F1C4F8EC10F3
:108EE00040F6B831A4F8F010E38BA4F8F650B4F8CB
:108EF000FAC0521C0CFB00FCBCFBF0FCA4F8FAC04E
:108F000040F2712C03FB0CF300EB03135B1EB3FB6D
:108F1000F0F3A4F8F830A4F8FE202C4A04F1A801DC
:108F200000EB0212521EB2FBF0F24A640A6C42439A
:108F3000B2FBF0F008642631481E0CF0CEF80EF0BB
:108F4000F8FC38B1A06904F0E5FE002804BF84F8FD
:108F5000D86270BD84F8D85270BDFFE7D4F8C4134E
:108F6000B4F8CAC3636904F1A800A4F8F650B4F8D1
:108F7000FA40B2FBF1F25C43B4FBF1F4A0F85240CA
:108F800040F271240CFB04FC01EB0C1CACF1010C55
:108F9000BCFBF1FCA0F850C0521CA0F85620B0F861
:108FA0004820624301EB0212521EB2FBF1F242640E
:108FB000026C5A43B2FBF1F1016470BD005A6202C7
:108FC0002F4904C400E0FCFF7FC3C901389C1C008A
:108FD000002A08BF70471144401E12F0010F03D051
:108FE00011F8013D00F8013F520808BF704700BF6B
:108FF00011F8013C437011F8023D00F8023F521E87
:10900000F6D1704741F64C5291423DBF0549A1FB54
:109010000010400940F2E24128BFB0FBF1F080B2FD
:10902000704700001F85EB5141F64C5291423DBF05
:109030000549A1FB0010400940F2E24128BFB0FB06
:10904000F1F0C0B2704700001F85EB51074991F95C
:10905000001008441428C4BF1420704710F17F0F7B
:10906000B4BF6FF07E0040B27047000030020020B5
:10907000024A002111705170704700003002002038
:1090800008B57F208DF80000684606F0CBFA00286E
:1090900004BF9DF9000008BD9DF900100748407805
:1090A000404240B208441428C4BF142008BD10F147
:1090B0007F0FB4BF6FF07E0040B208BD30020020C9
:1090C000074908B509788DF800109DF800100029AF
:1090D0001CBF002008BD03490EF08CFA012008BD1A
:1090E000320200203302002010B508A182B0D1E97D
:1090F0000001CDE900016946064CFF202070601C8C
:109100000EF078FA0020207002B010BDFFFFFFFFC4
:109110001F000000320200202DE9F84FDFF854A2B2
:10912000954F83464FF00108002578682E46007A57
:109130008DF80000009800909DF80010102908D1CB
:109140009AF8170028B1BAF81800002808BFBDE83F
:10915000F88F28463C6914B3217A8DF800100099E5
:1091600000919DF80020D2B10028F2D1B4B3207A4A
:109170008DF800009DF8009004F1080005210170B1
:10918000A9F102000F2880F0E880DFE800F02B3919
:1091900045E67E7093704F4F707070B3D5007C6859
:1091A000227A8DF80020009A00929DF80030012B61
:1091B00008BF0446D8D0EFF3108172B622687A60F7
:1091C00001B962B6217A8DF80010009900919DF8DE
:1091D0000020002A0CBF40463C61C5E7FFE70020A5
:1091E000BDE8F88F626832B15946204690470420A6
:1091F00060F3070688E04FF4E0711020FEF766FA8E
:10920000626822B159462046904706467CE040F20B
:10921000C9111020FEF75AFA616811B1204688473B
:1092200072E040F2D3111020FEF750FA5348036861
:10923000002B69D060684A46594600909847042040
:1092400060F307069BF800001D2805D01A285BD1A3
:109250009BF80200002857D0009804210089FEF7EF
:10926000E9FF18B34FF4F4711020FEF72FFA4448C9
:109270000368B3B360684A4659469847042060F3D0
:109280000706B9F10D0F11D03EE0626832B15946C0
:109290002046904703F0A2FD28B107E040F20E21DE
:1092A0001020FEF713FA02F0FDF8D0B104203D6162
:1092B000BDE8F88F6068A8B104882046FFF75EF922
:1092C000A0B10D218BF80010ABF80340ABF805807E
:1092D0008BF8028000210BF0DDFA04203D61BDE82F
:1092E000F88F11E0E3211020FEF7F0F9C5211020DE
:1092F000FEF7ECF91E208BF80000D4F80900CBF83B
:109300000300042060F30706C6F30720012808BF06
:1093100084F8089027D0EFF3108072B6217A8DF888
:1093200000109DF80010052913BF002925723D612A
:1093300065F30706B8B915E01248026822B1606803
:1093400030B100885946904702203D61BDE8F88F52
:1093500040F23D211020FEF7B9F940F247211020DC
:10936000FEF7B4F962B616F0FF0F3FF4DEAEF0B2CE
:10937000BDE8F88FB4100020E41000209000002019
:109380008C000020880000200A4910B508700A48A7
:10939000002141618161C1610162416212220EF0CE
:1093A0006AFB0648012100F10C021170011D4160A9
:1093B000016010BD38020020D0100020E410002011
:1093C00038B5037A8DF800309DF8003023B140F2B3
:1093D000BF211020FEF77AF9F0B1416000F10801D9
:1093E0000A70EFF3108372B6DFF844C0C0F800C013
:1093F000ACF104014A6852B1127A8DF80020009A4B
:1094000000929DF80040012C08BFC1F800C00A6816
:109410001060086033B904E040F272211020FEF7BA
:1094200055F962B603480078BDE838400AF0CABC76
:10943000E810002038020020094810B500214161E1
:109440008161C1610162416212220EF014FB054884
:10945000012200F10C010A70011D4160016010BD84
:10946000D0100020E410002070B51A4DA5F10804BA
:1094700008211848FEF7A0F92868002804BF68688A
:109480000028F5D0D5E90001134A81EA000100FB6C
:1094900002F281EAB01080EA41204FEAF1430E491E
:1094A0004FEAF26200FB01F183EA000312EB820251
:1094B00083EAB01080EA4320226028604FEAF1611D
:1094C0004FEAF34001EB81016860616008BF002949
:1094D000D8D070BD9C000020BB79379E094A0A484D
:1094E000D2E9001348434B4083EAB11181EA43219A
:1094F00011604FEAF0604FEAF34100EB80005160E9
:109500007047000094000020BB79379E094A0A4842
:10951000D2E9001348434B4083EAB11181EA432169
:1095200011604FEAF0604FEAF34100EB80005160B8
:10953000704700009C000020BB79379E2DE9F8435E
:1095400091F801C00A788C784FEA1C6342EA0C2239
:1095500042EA044243EA1443CC784FEA142C42EA2C
:1095600004640A7943EA0C031A434979012842EA60
:10957000012108BF41F480310D466A46204600F0C3
:1095800095F800281CBF0120BDE8F883DFF8608053
:1095900098F8000098F80110884204BF0020BDE848
:1095A000F8839DF80090484515D9D8F80410A0EB31
:1095B000090C01EBC00300220CF0FF0C861A01EB32
:1095C000C606521C56E9027663E80276ACF1010C3D
:1095D0001CF0FF0CF2D1D8F80410401C01EBC901BB
:1095E000C1E9004588F800000120BDE8F8830000CB
:1095F000A400002010B510F0070F03D0632148200D
:10960000FEF764F820B1034A5170506000201070DA
:10961000C80010BDA400002038B54B780A784FEA86
:10962000136C8C7842EA0323CA7843EA04434CEA79
:10963000144C43EA02634CEA122291F804C04979BF
:1096400042EA0C0242EA0121012808BF41F48031BC
:1096500018466A4600F02AF8002808BF38BD0C48B2
:109660000178491EC9B201709DF800208A420DD2CE
:109670004068891A00EBC200C9B20830491E70E880
:10968000022311F0FF01E0E80423F7D1012038BDE7
:10969000A40000200149002008707047A4000020A9
:1096A0000148407870470000A40000202DE9F00137
:1096B000294E002313703378002B44D05B1EDBB29D
:1096C0004FF0000C012BC8BF756810DD0CEB0304D4
:1096D000640805EBC407D7E90087B8EB00088F41A1
:1096E00034BFA4462346A3EB0C04012CEEDC7668C1
:1096F00006EBCC05D5E9004580EA040781EA0508B8
:1097000057EA080708BF82F800C020D0041B71EB9D
:1097100005043FBF82F800C00020BDE8F00170479B
:1097200006EBC30CDCE9004C80EA040581EA0C0678
:10973000354308BF13700AD0001B71EB0C0032BF19
:109740001370581C10700020BDE8F0017047BDE890
:10975000F001012070470000A40000202DE9F04135
:109760000446807C022816BF032801260026002814
:1097700016BF0228002701274FF0080536B194F8DC
:10978000670004F16801FFF797FA0546A078C0F377
:109790004010A0B9082D03D02846FFF7C1F970B1D9
:1097A0007FB367B1607E002808BFBDE8F081D4F8C0
:1097B0001300C4F86100B4F81700A4F86500A67699
:1097C00084F86070E576FFF7A7FA2A49A0FB0156F6
:1097D0000DF097FF40197141C4E91601002084F88B
:1097E0006E000646E07EFFF7B3F90546A07E01272E
:1097F000002818BF002D1BD0E07EFFF791F950B173
:1098000016E0FFE704F161010020FFF731F90028BD
:10981000D5D1BDE8F08184F86070324604F1610171
:1098200028460BF067FBE17E04F16100FFF79CF92D
:10983000A07810F0040F1AD0E07EFFF7CFF90500F2
:1098400015D0E07EFFF778F988B984F86E7032465B
:1098500004F16F0128460BF04DFB04F16F01064C3B
:10986000A0680BF06EFE0121A0680BF071FE0120D4
:10987000BDE8F08140420F00AC000020F8B504467E
:109880000D4628300CF08CF8B4F802C0CCF300116F
:1098900029B1BDE8F8402822614601F043BACCF373
:1098A0004001002914BFB4F85460B4F84C60217929
:1098B0001D4A4FF47A73082932F8112002F2E73278
:1098C000B2FBF3F708BF40230AD0042908BF1023D6
:1098D00006D0022907BF042312220823192200E020
:1098E000142213FB02F2082908BF402319D00429CF
:1098F00008BF2E2315D0002302290CBF18212821D0
:109900001944114411FB00716FF07F0202EBC0108B
:109910000144CDF800C062792B46304600F01CFFB0
:10992000F8BD4FF4A871EBE7DAAC02002DE9F04F77
:1099300080468DB00C46C269D8E90501D8E90076A9
:10994000D8E903A90392CDE90101D8E90801CDE9DD
:10995000040106A80CF09CF8A07A60F3174920785F
:1099600060F30707B4F80100ADF800009DF80000AF
:1099700000F00101C0F3400241EA4201C0F380025D
:1099800041EA8201C0F3C00241EAC201C0F3001201
:1099900041EA0211C0F3401241EA4211C0F38010C3
:1099A00041EA801B207D6BF31F47012818BF022866
:1099B00003D0032808BF08200ED1617860F30706A2
:1099C00011F0100F0FD1A17D012918BF022908D075
:1099D000032908BF082104D040F2A6210620FDF784
:1099E00075FE61F30F26CAF30741012908D0617A99
:1099F00006A80CF028F8207D012102280FD10BE0E9
:109A00000421082808BF61F30706C6F307200828C9
:109A100008BF61F30F26EAE7607D401CC1B2A07E5B
:109A2000401CC2B206A80BF0A4FF380C10F0080FBF
:109A30004FF0000523D106A80BF0B2FF617811F0BA
:109A4000100F7BD02822594601F06CF940F27121A9
:109A500000F2DD20B0FBF1F000FB01F5D4F80200CC
:109A600040F27122000A4143D4F80500000A504335
:109A70008D4298BF0D4602D9854288BF0546A07C1D
:109A800060F30F29207E012818BF002060F3070A29
:109A9000D8F844000BF010F98346D8F844000BF0D6
:109AA000B7F9834528BF584698B106A90891390CE3
:109AB000ADF824108DF82C60310A8DF82D100A9520
:109AC00008A901F093F8002802BF45200DB0BDE8B9
:109AD000F08FC8F80CA0C8F80070C8E90165DDE98E
:109AE0000101039AC8F81090C8F81C20C8E90501C4
:109AF000DDE90401C8E908010698C8F82800BDF8A6
:109B00001C00A8F82C00E07A002816BF02280020CC
:109B1000012088F86700E068C8F86800208AA8F883
:109B20006C00E07D98F83E1060F3071188F83E1055
:109B30000DB04FF00000BDE8F08FFFE70346F0B234
:109B400020494FF47A72082831F8101001F2E731F9
:109B5000B1FBF2F208BF4FF0400C0DD0042808BF53
:109B60004FF0100C08D0022807BF4FF0040C122150
:109B70004FF0080C192100E014211CFB01F108280A
:109B800008BF40251BD0042808BF2E2517D0022867
:109B90000CBF182028202844084410FB03206FF035
:109BA0007F0101EBC3114518FEF7EAFD390C009166
:109BB000C6F307220123294600F0CEFD46E74FF405
:109BC000A870E8E7DAAC0200114A10B50021117064
:109BD000104CA060107820B140F21D312D20FDF70F
:109BE00075FD116051609160D160116151619161A9
:109BF000D161116204F0A4FE04F094FDE068002835
:109C000018BF10BD4FF448712D20FDF75FFD000017
:109C1000F8100020AC00002002490148C8607047DD
:109C20000CAD0200AC00002002494860C968096818
:109C300008470000AC0000200B4910B50878002848
:109C400018BF0C2401D0204610BD00240C604C60CD
:109C50008C60CC600C614C618C61CC610C6204F056
:109C60006FFE04F05FFDEEE7F8100020054910B527
:109C7000097801291CBF002010BD00F04DFF002015
:109C800010BD0000F81000202DE9F0410446807856
:109C9000C0F3C00058B13C23FF222046E16900F028
:109CA00001FC02221E4904F17C00FFF789FBA07829
:109CB0004FF0000510F0010F20D0E0693C26078826
:109CC00004F02CFCA8B9217884F8B010A4F8B17085
:109CD00084F8AF60607B10B984F8B35003E094F867
:109CE000400084F8B30002220E4904F1A600FFF7F9
:109CF00067FB012084F87900BDE8F0814FF6FF771B
:109D00003C2604F00BFC0028F3D1217884F8B01035
:109D1000A4F8B17084F8AF60607B0028DFD1DBE786
:109D2000FD580300A35803002DE9F041734E0F00C6
:109D3000044627D004F128000BF087FEC0B9A078B4
:109D4000C0F3C000002838D004F128000BF028FE32
:109D5000054604F128000BF078FE281AC0B20BF07B
:109D6000A4FE71680844706004F128000BF098FEAE
:109D700004F128000BF024FE05F0A6FC2179252033
:109D800005F06AFC5E4D94F86E800021A8680180A1
:109D9000017801F0DF010170618813292DD011DCF9
:109DA000102908BF02213DD0122908BF062139D051
:109DB00040F24A612D20FDF789FC2046BDE8F041C4
:109DC00000F0AABE152918BF1D29F1D14FF00101DD
:109DD0000BF095FBA868B8F1000F017801F0DF01E6
:109DE00041F02001017013D004F16F010BF0A9FBC9
:109DF0000121A8680BF0ACFB16E000210BF07FFB03
:109E0000A868017801F0DF0141F0200101700BE04A
:109E100004F168010BF095FB94F86710A8680BF04B
:109E200097FB01E00BF06BFBA04604F16101A86811
:109E30000BF097FB98F86010A8680BF099FB60880E
:109E40001D2818BF152805D094F84C20A16CA868CF
:109E50000BF045FBA86805F0E3F90420307057B318
:109E60006088102823D004F12800B5680BF098FD15
:109E7000074604F128000BF0E8FD381A401EC0B276
:109E80006188282200F074FF0544A078C0F3C00068
:109E900030B1706805440BF00CFE2844C4F8100182
:109EA00022792946002005F005FA20B913E021792E
:109EB000002004F017FE6088132815D010DC10284D
:109EC00008BFBDE8F08112280ED000BF40F67951DE
:109ED0002D20FDF7FBFB40F665512D20FDF7F6FB2D
:109EE000152818BF1D28F1D12279BDE8F0414FF0A7
:109EF00001014FF0000005F031BB0000F810002018
:109F0000AC0000202DE9F041484E82B031780229A2
:109F10001CBF3178032905D040F6EF414FF02D00EA
:109F2000FDF7D4FB424C4FF00008D4F808C061683C
:109F30009CF80050CA6905F00F07002A18BF92F874
:109F40007380002853D001F1610391F86020E80983
:109F50000CF109010AF0A6FF002848D06568052F1A
:109F600026D1A06890F8240000F01F0010281FD907
:109F7000E87BE8B1FF208DF800006A4605212846FD
:109F800000F052FB90B395F8D9008DF804009DF8CD
:109F9000040058BBA0682222C11C05F1DA000DF0B4
:109FA000F0FC0222234905F1D100FFF709FA1EE077
:109FB0004146A0680BF0ECF9C0B1327860683946D0
:109FC000022A1CBF3278032A05D040F6C8414FF060
:109FD0002D00FDF77BFBE268337852696FF0070CC8
:109FE0000CEB8303D2589047054601E0FFE70125BB
:109FF000B07B18B104F0A4FC04F094FB002D04BF66
:10A0000002B0BDE8F08160680BF065FD38B104F086
:10A01000B9FCE068806802B0BDE8F04100476068C4
:10A0200002B0BDE8F04100F077BD0000F81000205C
:10A03000AC0000204B59030030B583B0032902D097
:10A04000052962D05EE00446FF208DF800006A46D4
:10A050000321204600F0E8FA002853D0207B2F4D42
:10A0600098B39DF8000094F8C8108DF804109DF87E
:10A07000041051BB227884F8C920FF2811D004F1C4
:10A08000CB02511EFEF7FEFD30B194F8CA0040F03D
:10A09000020184F8CA1012E040F6C2712D20FDF7CB
:10A0A00015FBA8680178C1F3801284F8CA20D0F8A3
:10A0B0000320C4F8CB20B0F80700A4F8CF00022298
:10A0C000174904F1C000FFF77BF9A868002101805F
:10A0D00004210BF014FA04F16101A8680BF041FAB5
:10A0E00094F86010A8680BF043FA94F85420216D9E
:10A0F000A8680BF046FA0B4905200870A86805F01F
:10A100008FF808E003B0012030BD0749096811B19C
:10A1100088470028F6D003B0002030BDAC000020F6
:10A120005D590300F8100020BC000020094A03001C
:10A13000506801D000F0F0BC002908BF7047D1681A
:10A14000054A096912786FF00F0303EB8202895800
:10A1500008470000AC000020F810002070B504464D
:10A160004088102810D0114DA87B20B104F01AFBB4
:10A17000402004F0F3FB0E48806805F051F8A07809
:10A1800010F0040F0BD105E02046BDE8704001211E
:10A19000FFF7CABD00212279084605F0DFF900204B
:10A1A00004F0BAFE0220287070BD0000F8100020F4
:10A1B000AC00002070B5194CA07B18B104F0C0FBB6
:10A1C00004F0B0FA164D68680BF085FCA8B1686819
:10A1D0004188C1F30012002A04BFC1F3C001002965
:10A1E0000BD0217802291CBF217803290AD040F620
:10A1F000FA314FF02D00FDF769FA6868BDE870404C
:10A2000000F08ABCE9682278C9686FF0070303EBA5
:10A2100082028958BDE8704008470000F81000200D
:10A22000AC0000202DE9F04F984E044689B03078FC
:10A2300000287CD12078FF2879D00027B78177606B
:10A240007770B77084F87970914B04AD0FCB85E8C7
:10A250000F009048C0684068079004A804F046FECC
:10A2600004F036FF04F06CFB04F05CFA8A4805F059
:10A27000E3F98A4805F0EAF9002009F0A5FE04F1A7
:10A2800028000BF00DFC04F128000BF099FB05F001
:10A290001BFA2179252005F0DFF994F9100004F06C
:10A2A000B3FF2179002004F0E1FC0125B060002813
:10A2B00001BF3570002009B0BDE8F08F04F14801FE
:10A2C000606C0AF06BFD814604F15001606C0AF08D
:10A2D00068FD8046B9F1000F1CBF94F820000028EB
:10A2E0003FD000BF4FF0010AA07E002804BFA07835
:10A2F00010F0040F6CD0D4E916016FF0004281EA2F
:10A30000020171EA000007D00DF0FBF9D4E9162331
:10A31000801A71EB030002D2BAF1000F58D0FEF799
:10A32000FBFC5F49A0FB01AB0DF0EBF900E014E092
:10A3300010EB0A0241EB0B00C4E91620E07EFEF7A9
:10A3400007FC8246A07E002818BFBAF1000F1FD07C
:10A35000E07EFEF7E5FB70B11AE009B00C20BDE825
:10A36000F08FB8F1000F1ABF94F8210000284FF0C9
:10A37000000AB7D1B8E72A4684F8605004F16101B9
:10A3800050460AF0B7FDE17E04F16100FEF7ECFBF8
:10A39000A07810F0040F1BD0E07EFEF71FFC5FEAF0
:10A3A000000A15D0E07EFEF7C7FB88B92A4684F87C
:10A3B0006E5004F16F0150460AF09CFD354D04F1DA
:10A3C0006F01A8680BF0BDF80121A8680BF0C0F878
:10A3D00094F87B1049EA08008DF800109DF80010F1
:10A3E000002918BF0121084318D0A078C0F300103D
:10A3F000002804BFB4F83D00C0F30B050ED100BF28
:10A40000FFF76CF8C0F30B00A842F9D0B4F83D1088
:10A4100060F30B01A4F83D1084F87B701D48806840
:10A42000C01CFEF769FBB073A07810F0010F28D0B4
:10A430000121384661F31740CDE90270FF203077E3
:10A4400002A8E569FDF7A6FED8B9029CAC4213D07C
:10A450006A7A607A05F10A0304F10A010AF022FD22
:10A4600050B1A0783077D4F80300C6F81D00B4F8D6
:10A470000700A6F8210004E002A8FDF78BFE0028E3
:10A48000E3D009B00020BDE8F08F0000F8100020F4
:10A49000ECAC0200AC000020D6BE898E55555500AC
:10A4A00040420F0070B5044680F885300888A4F853
:10A4B0008600FF2084F8A3004FF6FF7016460D4675
:10A4C000A4F8A400002B18BF70BD68690AF0ABFDAA
:10A4D000A4F89C00A88BA4F89E00E88BA4F8A00028
:10A4E00095F8D90284F8A200A07E002148B194F822
:10A4F0006000012805D194F8660000F0C0004028F3
:10A5000022D0C4F89010A4F894101C48FF2E806844
:10A510000178C1F3801184F88910D0F8031021D09C
:10A52000C4F89610B0F80700A4F89A0004F18A0263
:10A53000511E3046FEF7A6FB78B194F8890040F032
:10A54000020084F8890070BDD4F86100C4F890005E
:10A55000B4F86500A4F89400D7E740F64D412D20EB
:10A56000FDF7B4F8C4F88A10B0F80700A4F88E001C
:10A5700004F19600BDE870400DF041B8AC00002039
:10A5800010B50446FFF74EFE002818BF10BD054861
:10A590000078012803D000212046FFF7C5FB0020EA
:10A5A00010BD0000F810002070B51D4C1D496568F5
:10A5B0000878002808BF70BD087802281CBF0878FA
:10A5C000032805D1887B18B104F0BAF904F0AAF881
:10A5D00009F0DEFC207868B128460BF07CFA48B11F
:10A5E00060688178C1F3C00149B1BDE870400121C4
:10A5F000FFF79ABB2846BDE8704000F08DBA0446CC
:10A6000028300BF022FA28B12046BDE87040012125
:10A61000FFF78ABB2046BDE8704000F07DBA00001D
:10A62000AC000020F81000202DE9F04383B015465F
:10A63000044603290FD094F87800002818BF0120A1
:10A6400000264FF00109052904BFA17811F0010F80
:10A650006ED060B16CE0A0784FF00006C0F340000F
:10A660004FF00209002804BF03B0BDE8F08338486A
:10A67000DFF8E080807B80B10AF0A6FC2870FF281C
:10A6800014D0C0B26A4602A9FEF7FCFA48B1694686
:10A690009DF808000AF0A2FF06462878FF280ED190
:10A6A00004E040F645712D20FDF710F8D8F80810A9
:10A6B00011F8030BC0F380100AF090FF0646D8F89B
:10A6C000081094F8672004F1680311F8030BC0F335
:10A6D00080100AF0E7FBD8F80810074611F8030BC2
:10A6E000C0F38010FEF7E8FA8046FEF74FFB50B14A
:10A6F0004046FEF773FA30B14046FEF71DFA0028D7
:10A7000008BF012000D000202978FF2908BF27EAD0
:10A71000000106D027B9E27E8A4218BF002100D18D
:10A720000121A27812F0040F01D009B10AE018B19A
:10A7300003B00020BDE8F08326B9607C002818BF74
:10A740004845F5D103B04FF00100BDE8F0830000AB
:10A75000F8100020AC0000202DE9F84F04460A98BC
:10A7600000F0010AC0F3400B04F12600FF2828BFC7
:10A77000FF200A3080B2FF2828BFFF205AEA0B0EC4
:10A78000A4F1D90C1FFA8CFC0CF1F60544F2552605
:10A7900005FB06F54FEA955500950CFB06F54FEACB
:10A7A000955808F0FF056FF0F60615FB06F505EB6A
:10A7B0000C0707F1080C1FFA8CFC0CF105094FF08F
:10A7C000000C4FF4C8754FF4BF7601F5A57100F089
:10A7D0001681BBF1000F17D0082A04BFAB464020FA
:10A7E0000CD0042A04BFB346102007D0022A07BFAA
:10A7F0000CF1180B04200CF1280B082000EB800E44
:10A800000EEB801058441AE0DBB1082A04BF28463A
:10A810004FF0400B0FD0042A04BF30464FF0100B0E
:10A8200009D0022A07BF0CF118004FF0040B0CF1FD
:10A8300028004FF0080B0BEB8B1B00EB8B00084440
:10A8400019E0082A04BFAB464FF0400E0FD0042A8F
:10A8500004BFB3464FF0100E09D0022A07BF0CF117
:10A86000180B4FF0040E0CF1280B4FF0080E401D92
:10A8700000FB0E1058449C3002F00C01002918BF58
:10A880002821084418BF00F5356017D1082A04BFF5
:10A89000AB4640210CD0042A04BFB346102107D098
:10A8A000022A07BF0CF1180B04210CF1280B082118
:10A8B000C1EBC10E0EEB4111594408449830BAF176
:10A8C000000F18D0082A08BF40210CD0042A04BF6A
:10A8D0003546102107D0022A07BF0CF118050421C4
:10A8E0000CF12805082101EB410202EB011129447A
:10A8F0000844BDE8F88FDBB1082A04BF29464FF0B1
:10A90000400A0FD0042A04BF31464FF0100A09D084
:10A91000022A07BF0CF118014FF0040A0CF12801BC
:10A920004FF0080A0AEB8A1A01EB8A0108441FE07B
:10A9300004F10E01FF2928BFFF2189B2082A04BFB4
:10A94000AA464FF0400B0FD0042A04BFB2464FF086
:10A95000100B09D0022A07BF0CF1180A4FF0040BA4
:10A960000CF1280A4FF0080B491D01FB0B00504465
:10A97000D92C98BFBDE8F88F93B10099082A7DD0F3
:10A98000042A7CD0022A7BD080E000BF02EB821236
:10A9900005EB820202F5A57201FB0200BDE8F88F0B
:10A9A00008F0FF01082A04BF2B4640240CD0042ADB
:10A9B00004BF3346102407D0022A07BF0CF1180346
:10A9C00004240CF12803082404EB841403EB84030F
:10A9D00003F5A57301FB03003904090C08BFBDE8AA
:10A9E000F88F082A7ED0042A7DD0022A7CD085E008
:10A9F00009FB0100284400F5A570BDE8F88FDBB124
:10AA0000082A04BF28464FF0400A0FD0042A04BF8A
:10AA100030464FF0100A09D0022A07BF0CF1180087
:10AA20004FF0040A0CF128004FF0080A0AEB8A1ACA
:10AA300000EB8A00084419E0082A04BFAA464FF038
:10AA4000400B0FD0042A04BFB2464FF0100B09D0C0
:10AA5000022A07BF0CF1180A4FF0040B0CF1280A68
:10AA60004FF0080B401D00FB0B105044D92C98BF31
:10AA7000BDE8F88FBBB10099082A02E00DE009E0BB
:10AA80000DE00AD0042A05D0022A08D00CF12805CE
:10AA900008227BE73546102278E7402276E70CF162
:10AAA0001805042272E708F0FF01082A04BF2B46AC
:10AAB00040240CD0042A04BF3346102407D0022AB5
:10AAC00007BF0CF1180304240CF12803082404EB3D
:10AAD000841403EB840303F5A57301FB030039041D
:10AAE000090C02E011E00DE011E008BFBDE8F88FAD
:10AAF000082A0AD0042A05D0022A08D00CF1280519
:10AB0000082175E73546102172E7402170E70CF106
:10AB1000180504216CE700002DE9F0410446B0F867
:10AB20004000304E401CA4F84000B07B002520B10E
:10AB300003F006FF03F0F6FDB573357094F8790065
:10AB400028B12046BDE8F04101210AF0D9BF607B61
:10AB5000002840D0B4F8401088423CD8012120465B
:10AB60000AF0CEFFA07810F0010F20D0E069432654
:10AB7000078803F0D3FC002818BFBDE8F0812078D7
:10AB800084F8B000A4F8B17084F8AF60607B10B9AD
:10AB900084F8B35003E094F8400084F8B30004F163
:10ABA000A600BDE8F04102220F49FEF709BC4FF6AE
:10ABB000FF77432603F0B2FC002818BFBDE8F08100
:10ABC000207884F8B000A4F8B17084F8AF60607B9E
:10ABD0000028E0D1DCE72046BDE8F04100210AF082
:10ABE0008FBF0000F8100020A3580300F8B50A79C1
:10ABF00012F0180F5ED105460C0028D020680028FE
:10AC00002AD00AF0CDFE237B627B042B08BF0823E9
:10AC1000042A08BF08222A494FF47A7C082B31F80D
:10AC2000131001F2E731B1FBFCF708BF4FF0400C05
:10AC300017D0042B08BF4FF0100C12D0022B07BF07
:10AC40004FF0040C12214FF0080C19210AE040F2D9
:10AC5000FB312D20FCF73AFD4FF47F712D20FCF7DE
:10AC600035FD14211CFB01F10026082B08BF4FF015
:10AC7000400C21D0042B08BF4FF02E0C1CD0B44642
:10AC8000022B0CBF182328236344194411FB0071C5
:10AC90006FF07F0303EBC0100144A08800900023F5
:10ACA0002846FFF759FDA16800F2111081423CBF10
:10ACB0003046F8BD0120F8BD4FF4A873E4E700006A
:10ACC000DAAC0200024801214068FFF72DB800000D
:10ACD000AC00002003000000010000002CA6E0A151
:10ACE000000020A800000000000020A8B5A102007C
:10ACF000059F02002DA102000000000039A0020003
:10AD00005DA10200975803009D58030081A5020031
:10AD1000A9A50200C5AC020008AD020000AD02000A
:10AD2000FCAC020010B5421E022A03D9CA212F2012
:10AD3000FCF7CCFC401E102902BF0A4931F8100074
:10AD400010BD122914BF1329074907D0152908BFC0
:10AD5000064903D0D8212F20FCF7B8FC31F81000A9
:10AD600010BD0000CA5A0300C45A0300D05A0300A1
:10AD7000421E10B5D2B2012A05D91D291ED0EE21DE
:10AD80002F20FCF7A3FC132914D008DC102902BFE4
:10AD90000D4830F8120010BD12290BD005E015291E
:10ADA00008BF0A4807D01D2908D04FF481712F2011
:10ADB000FCF78CFC064830F8120010BD40F25A3106
:10ADC00010FB01F010BD0000B85A0300C05A030088
:10ADD000BC5A03002DE9F043044690F8200183B0EB
:10ADE00015460E4640BB2146714807F01FFC07463A
:10ADF000202821D05022002104F580700CF03BFE69
:10AE000084F800714FF00108C4F8046184F82081CF
:10AE100036B1FEF77BFB00F00700401C86F80C0300
:10AE200020460AF003FD002808BF61262FD02046E7
:10AE30000AF0EEFC20B10AE003B00C20BDE8F0837C
:10AE400020460AF0F7FC002808BF502600D05A26FA
:10AE5000684605F03FFA9DF80000002814BF01275E
:10AE6000002701A805F01EFA9DF80400002818BF6D
:10AE70000120384318BF0A3609F09EF8002818BF91
:10AE8000183604D109F03AF8002818BF0F36A4F894
:10AE90003061022084F8320184F83381002684F87E
:10AEA00028610CF023FC0746B4F8309108F00CF848
:10AEB0004F4598BF4F463844CF3087B220460AF0FE
:10AEC000B1FC78B30CF01AFA00F5CD6081B22846D7
:10AED00008F0F0F82844C4F82C010CF012FCC0195A
:10AEE0007141C4E94E0184F80881668420460AF065
:10AEF00093FC48B120460121FEF7C0FC00F5997093
:10AF0000281AA0F57F7005E001200AF0CEFD00F5BB
:10AF10009970281AC4F80C014FF0FF304108C4E9B9
:10AF200050012BE0FFE720460021FEF7A7FCDFF8E9
:10AF3000848000F59970C4F82C01B8F80410002042
:10AF400000291CBF618C002907D0FEF7DFFAB8F892
:10AF50000410B0FBF1F201FB120007440CF0D1FB2E
:10AF6000C0197141002DC4E94E0104BF4FF0FF30FC
:10AF7000410801D040197141C4E9500194F8000121
:10AF800004F5947106F062FC68B1D4E94E01C4E99D
:10AF90004601A4F82261002120460AF074FC03B0A7
:10AFA0000020BDE8F0834FF4F6713020FCF78EFBF3
:10AFB000AD5C0300C000002001498880704700009C
:10AFC000C0000020054800210170012282704170FC
:10AFD00042F21071818000F003B80000C000002030
:10AFE0002DE9F043002587B00221284661F3174080
:10AFF000CDE9025002A8FDF7CDF8012710BB029C55
:10B0000094F82001C8B184F84871012120460AF063
:10B010003AFC94F8200180B194F8000107F084F81C
:10B0200094F8000107F0EAF994F8000107F0C4F978
:10B03000002818BF84F820510ED002A8FDF7AAF806
:10B040000028DCD02A4E7770284667F31740CDE9F8
:10B0500000504FF6FF742AE040F20A213020FCF73E
:10B0600035FB009800281CBF90F8641320291ED0DF
:10B070000088A04218BF202734D00121FCF788FFA8
:10B080005FEA000819D098F8640307F0B7F9A946F9
:10B0900088F81C5398F8640307F08EF9012049469C
:10B0A00088F8647360F31741CDE9049115E06846B0
:10B0B000FDF770F80028D4D014E04FF491713020DF
:10B0C000FCF704FB049800281CBF90F864132029A7
:10B0D00003D00088A042D0D104E004A8FDF75AF8BC
:10B0E0000028EFD0757007B00020BDE8F0830000A5
:10B0F000C00000200149087070470000C000002017
:10B1000010B5114C626892F87020032A04D040F602
:10B1100044413220FCF7DAFA022818BF032805D090
:10B1200040F652414FF03200FCF7D0FA002918BF28
:10B1300001F020FB00206168A1F8BA0081F8BC0092
:10B1400081F8700010BD0000D40000200148406864
:10B15000B8307047D40000202DE9F041274C6168D9
:10B1600091F84400002816BF02280020012081F831
:10B17000450001F14601FDF77BFC606890F8441042
:10B18000022916BF03290122002280F87D2090F8B1
:10B19000451000F14603012904BF5B7913F0C00F8D
:10B1A0000AD000F14603012904D1597901F0C00108
:10B1B000402901D0002100E0012180F85810002929
:10B1C00004BF002ABDE8F08100F1A007FDF7A4FD4F
:10B1D0000B49A0FB01560CF094FA40197141C7E9E4
:10B1E0000001606890F87D00002808BFBDE8F0818C
:10B1F0000020BDE8F041FDF7C5BC0000D4000020F0
:10B2000040420F00034810B5406884300CF071F8DC
:10B21000002010BDD40000200B484068416E00297A
:10B2200004BF0C20704700F16901FF220A70002260
:10B2300042660A7090F86800012101FA00F00349A3
:10B240000860002070470000D400002008F501408D
:10B25000024610B50F480C468260C168A1B1426831
:10B260000020A2F8BA0082F8BC0082F8700001F059
:10B2700057FA204600F034F8002808BF10BD40F609
:10B28000AF113220FCF722FA40F6A9113220FCF768
:10B290001DFA0000D400002002490148C860704730
:10B2A00074C40200D400002070B50446FDF77AFA99
:10B2B0000546FDF771FA0146284609F017FB010023
:10B2C00006D00648C06802682046BDE870401047B6
:10B2D00040F6A5213220FCF7F9F90000D400002047
:10B2E00070B5284D064682B0686890F87010012944
:10B2F0001FBF90F8700000280C2002B018BF70BD6E
:10B30000FDF774FA01F00CFA6868002490F87C00EC
:10B3100030B103F015FB03F005FA686880F87C4053
:10B320004222002168680CF0A6FB6968012081F8C0
:10B330004D0081F8544081F87A4081F8596081F8D5
:10B34000A840072081F84C0001F16900FF2202703B
:10B3500081F868404C66047042300470C1F8AC401B
:10B360000949D1E90101CDE90001684600F01CF866
:10B37000002804BF02B070BD40F69A113220FCF7DD
:10B38000A5F90000D400002010C402000548406860
:10B3900090F84400002816BF022800200120FDF785
:10B3A00095BB0000D40000200178002211F0010FAD
:10B3B0002349496809D042780023032A08BF0B6556
:10B3C00081F85420012281F8BD20037813F0020F88
:10B3D0000ED083784FF0000C032B08BFC1F850C08B
:10B3E00081F85430022301EB020C521C8CF8BD3062
:10B3F000037813F0040F0CD0C3784FF0000C032B2C
:10B4000008BFC1F850C081F854300A44082382F8BC
:10B41000BD30027981F844204279002A16BF022A01
:10B420000123002381F84D3081F85520827981F87D
:10B430004C20C07981F857004FF0000070470000A1
:10B44000D40000200148C06840680047D4000020B4
:10B4500038B5134C0022606890F869108DF8001020
:10B460009DF8001031B9416E00291CBF90F86800AA
:10B4700007F084FA6068002590F87C0030B103F092
:10B480005FFA03F04FF9606880F87C506068A0F8BC
:10B49000BA5080F8BC5080F87050002038BD0000D1
:10B4A000D4000020064881B0406890F83E008DF836
:10B4B00000009DF80000002818BF012001B070476F
:10B4C000D40000200948406890F8541003290CBFAC
:10B4D0000121002180F83F1004BF016D0988A0F808
:10B4E0004010022202493630FDF76ABFD400002026
:10B4F00049C202000248406890F8540070470000BA
:10B50000D40000200C48416891F85400032804D06E
:10B51000012818BF022807D004E091F8560001283E
:10B5200008BF70470020704791F85500012814BFEC
:10B5300003280120F6D17047D40000202DE9F04106
:10B540001E4F05460E4678681D4990F87A000C5C3F
:10B55000204604F0B9F8786880F88F4090F8981089
:10B56000BD300C5C012C0DD0022C08BF0D200ED07C
:10B57000042C18BF082C05D040F60F114FF03200F4
:10B58000FCF7A4F8FDF708F9402828BF4020214621
:10B5900004F062F8304603F043FE21464FF001000C
:10B5A00035B103F063FB002808BFBDE8F08101E07E
:10B5B00003F098FA0120BDE8F0810000D4000020DB
:10B5C00010C402002DE9F047804C0F460646406843
:10B5D000616884B090464FF0010A072F04BF00282D
:10B5E000B8F1000F08D04FF000094D4600284ED0AA
:10B5F000727C012A1AD020E081F882A091F8AB0079
:10B600008DF800009DF80000002804BF04B0BDE8DC
:10B61000F087D1F8AC0050300BF0DBFE002804BFFF
:10B62000606880F883A004B0BDE8F087427902F03A
:10B63000C002402A08BF012500D00025072F2DD1C8
:10B6400091F87C20002A18BF002D10D0B8F1000F0F
:10B6500004BF91F8B91001291AD000BF09F0B4FC59
:10B66000616881F8780081F8790081F880A06068CD
:10B6700090F87800FF2819D06A4602A9FDF702FB6E
:10B68000E8B369469DF8080009F0A8FF054645E0C3
:10B690000121FDF7D7FA616881F87C00606890F8B5
:10B6A0007C00002818BF002DE1D0D7E7707C7168BE
:10B6B00009F094FF62680546707C71687832FDF786
:10B6C00031FB90F0010F29D0606880F8829080F8FB
:10B6D000839000BF4FF00002B068002804BF04B0A0
:10B6E000BDE8F087072F1CBF04B0BDE8F087616894
:10B6F00091F87810FF2914BF002A04B000E008E098
:10B7000008BFBDE8F087FDF7F7FA606880F881A010
:10B7100089E740F621513220FBF7D8FF61682846BF
:10B72000072F91F84D5009D3082F29D8B8F1000FF1
:10B7300002D091F8821019B3716819B1002D08BFB9
:10B7400005461EE0B8F1000F05D1707810F0100F1B
:10B7500018BF554615D10AF00DFC30B1606890F85D
:10B760008200002818BF012000D10020284305D105
:10B77000FDF71CFB002808BF002502D0012500E0D2
:10B780004D46606880F88250114802682AB14146EF
:10B7900030469047616881F88300706850B16068F6
:10B7A000717C80F8901071680A68C0F889208988D7
:10B7B000A0F88D10606890F88310002906BF90F8FB
:10B7C00082000028012287D184E70000D4000020F5
:10B7D000E400002010B5FDF753FC094C20706068B0
:10B7E00090F87C0038B103F0ABF802F09BFF616881
:10B7F000002081F87C0003F0C5F8052010BD000092
:10B80000D400002010B5FDF73BFC0349087003F09D
:10B81000B9F8052010BD0000D400002070B58AB032
:10B820000646FDF72DFC114D69462870307800F072
:10B830000F042246304601F049F9002221466846AD
:10B84000FFF7C0FE2146684600F010F9696804461B
:10B8500091F87C1039B103F073F802F063FF686867
:10B86000002180F87C100AB0204670BDD400002072
:10B8700010B501788CB001F00F04224602A901F046
:10B8800025F903F07FF8FDF7FBFB224B042C187021
:10B8900038D103990A78596891F889C0624531D145
:10B8A000039A91F88AC0527862452BD1039A91F895
:10B8B0008BC09278624525D1039A91F88CC0D278DA
:10B8C00062451FD1039A91F88DC01279624519D152
:10B8D000039A91F88EC05279624513D19DF81920D0
:10B8E00091F890C062450DD17F280ED07F221A704A
:10B8F000009091F88F3091F8A82091F8791002A863
:10B9000000F09AFE0CB0052010BD40F23941322003
:10B91000FBF7DCFED40000202DE9F041524C064636
:10B9200000216068032E00F17007A068018002D03A
:10B93000052E04D057E0032109F0E1FD53E0052175
:10B9400009F0DDFDD4E90115086D8069C5F80F0027
:10B95000086D006AE874020A2A75000C6875086DA3
:10B960004169008DFDF760FBA875D4E90105006D04
:10B970004169406AFDF746FBE875000A2876D4E97C
:10B980000105006D406909F04EFB6876000AA87653
:10B99000D4E90120116D898BC176090A0177116DF7
:10B9A000C98B4177090A8177116D1F30CE310BF0B9
:10B9B00021FED4E90105006D95F8241090F8D90016
:10B9C00001F0E00100F01F00084385F8240002F0B8
:10B9D0004BFE95F82410E02201F01F0102EA40100E
:10B9E000084385F8240007F11901A06809F0A9FDB2
:10B9F00097F82010A06809F0ABFD606800F14605DB
:10BA000090F8457090F87D10A1B190F854104FF067
:10BA10000108032906D190F84D10002918BF90F8AD
:10BA20007B0001D190F87800FDF7E4F800281CBFF6
:10BA3000474605462946A06809F093FD3946A068A7
:10BA400009F096FDA06803F0EBFB052E18BFBDE8DA
:10BA5000F08160682A68016DC1F80A20AA88CA814D
:10BA6000006D4772BDE8F081D40000202DE9F04F51
:10BA7000EE4C7F260127002594F90030626883B0E0
:10BA8000002967D001297CD00527022907D0062983
:10BA90002AD002F077FF03B03846BDE8F08F0546A4
:10BAA00002F070FF606890F88210C9B190F85410ED
:10BAB000012918BF022913D194F900107F2900F041
:10BAC000B081267090F88F2090F87930CDE900325F
:10BAD000029100F14602FF230221284600F008FDF2
:10BAE00003B03846BDE8F08F92F8821029B192F881
:10BAF0005410022907D001291DD002F043FF03B0E2
:10BB00000520BDE8F08F7F2B00F08B81267092F826
:10BB10008F1092F879C0CDF800C0CDE90113FF2352
:10BB20000621463200F0E4FC61680B2081F8A85041
:10BB300003B0BDE8F08F7F2B00F07381267092F880
:10BB40008F1092F879C0CDF800C0CDE90113FF2322
:10BB5000062139E092F88210002900F0418192F824
:10BB60005410022908D0012920D003292ED040F6F4
:10BB7000D2613220FBF7AAFD7F2B00F052812670A4
:10BB800000E05EE092F88F1092F879C0CDF800C026
:10BB9000CDE90113FF230021463200F0A9FC6068C3
:10BBA00080F8A87003B00B20BDE8F08F7F2B00F069
:10BBB0003881267092F88F1092F879C0CDF800C0C5
:10BBC000CDE90113FF2300214632A6E0416892F837
:10BBD0005CC00B7863451FD14B7892F85DC063451C
:10BBE0001AD18B7892F85EC0634515D1CB7892F864
:10BBF0005FC0634510D10B7992F860C063450BD1EB
:10BC0000497992F86130994206D1407C92F85B10F4
:10BC1000884208BF012000D0002092F85610012968
:10BC20007ED000287CD1824890F87B10082978D0FB
:10BC300090F87800884273D0D2E003B00520BDE8C8
:10BC4000F08F054692F87D0092F882A0002814BF7C
:10BC50004FF000094FF001090027A87CA9680128CE
:10BC600007D1487900F0C000402808BF4FF0010814
:10BC700001D04FF0000892F85400032806D192F842
:10BC80004D00002818BF92F87B0001D192F878008F
:10BC90000090FCF75DFF5FEA000B43D00098FCF7D3
:10BCA0003FFF002818BF4FF00109B8F1000F39D04D
:10BCB0005846A96809F056F90700606890F845B041
:10BCC00018BF4BF0020B014690F8540003282DD00A
:10BCD00002F058FEBAF1000FAFD06068AA7C00F104
:10BCE000460190F845C0AB68604609F0DBF80028D3
:10BCF00008BF002F77D094F900007F286FD02670FE
:10BD0000616891F88F2091F87930CDE90032029086
:10BD100001F146025B460121284600F0E9FB8CE771
:10BD200058E05DE0606890F845B0CCE7686891F84D
:10BD30005C3002789A4220D1427891F85D309A4284
:10BD40001BD1827891F85E309A4216D1C27891F870
:10BD50005F309A4211D1027991F860309A420CD149
:10BD6000407991F86120904207D1687C91F85B207E
:10BD7000904208BF4FF0010801D04FF000082C4C52
:10BD800094F87800082805D094F87B20904208BFEA
:10BD9000012600D0002657B9B9F1000F09D091F85B
:10BDA0004500AA7C4631AB6809F07CF808B1012156
:10BDB00000E00021BAF1000F09D094F856000128E4
:10BDC00003D020B958EA060001D0012000E000208D
:10BDD000014205D003B00C20BDE8F08F03E020E065
:10BDE00002F0D0FD29E7606890F85510032918BFCC
:10BDF00002297FF422AFB8F1000F3FF41EAF94F98F
:10BE000000107F290DD0267090F88F2090F879309F
:10BE1000CDE900320291FE2300F1460201212846BD
:10BE20007BE740F239413220FBF750FCD400002080
:10BE30001009002010B5FDF723F90A4C2070606846
:10BE400090F87C0038B102F07BFD02F06BFC616879
:10BE5000002081F87C0002F095FDBDE8104000F064
:10BE600045BA0000D40000202DE9F0410746FCF758
:10BE700099FC0446FCF790FC0146204608F036FD8C
:10BE800005000ED0324C606890F8540001281CBFA9
:10BE9000022803280AD041F24A514FF03200FBF742
:10BEA00015FC41F244513220FBF710FC6FF01306F1
:10BEB00027B3284609F02CF918B9284609F0C8FA22
:10BEC000E0B16168284691F87020052A04D241F259
:10BED000C9413220FBF7FAFB91F870200B2A04D3FA
:10BEE00041F2CA413220FBF7F1FBE26891F8701091
:10BEF000526906EB8101515888471AE0606890F852
:10BF00007010052904D241F23A513220FBF7DEFBD2
:10BF100090F870100B2904D341F23B513220FBF70B
:10BF2000D5FBE16890F87000896906EB800008583D
:10BF300080470F2804D341F25F513220FBF7C6FB44
:10BF4000E168096951F82000BDE8F04100470000B0
:10BF5000D400002010B518B1BDE8104000F09EB923
:10BF6000002908BF10BD1048416891F870200B2AC5
:10BF700004D241F217613220FBF7A8FB91F8702040
:10BF80000F2A04D341F218613220FBF79FFBC068EF
:10BF900091F8701080686FF02B0202EB810140581D
:10BFA000BDE8104000470000D400002010B5FCF7A9
:10BFB000F9FB0446FCF7F0FB0146204608F096FC2E
:10BFC00050B103F02DF9002002F0A6FF054906202C
:10BFD000496881F8700010BD40F21B613220FBF708
:10BFE00075FB0000D4000020104910B5486890F897
:10BFF0007020052A04D241F24B613220FBF766FB28
:10C0000090F870200B2A04D341F24C613220FBF7E8
:10C010005DFBC96890F87000C9686FF0130202EB0D
:10C0200080000858BDE8104000470000D400002000
:10C0300010B5FDF725F80449087002F0A3FCBDE82F
:10C04000104000F053B90000D40000202DE9F8435F
:10C05000634D04460E46686890F87010002918BFBA
:10C06000012904D003291CBF0C20BDE8F883217BE3
:10C0700080F89810A1684167217B00F1BD0200277C
:10C08000895C80F8B9102168C0F8941020790228E2
:10C090001DD003F01DF802F053FC02F043FB5148A1
:10C0A00002F024FF504803F0D1FA504803F0C4FADC
:10C0B000686890F86C0000280CBF0120022007F08F
:10C0C00083FF207903281CBF304603F0A9F8607B6A
:10C0D00078B16868012290F869108DF800109DF819
:10C0E000001031B9416E00291CBF90F8680006F0BD
:10C0F00045FC2079032801D028B11FE040F64621F5
:10C100003220FBF7E3FA6A68DFF8E4C0002092F817
:10C110004C1000BF92F87A305B1CACFB03846408BF
:10C12000A4EB8404234482F87A3021FA03F313F059
:10C13000010F03D1401CC0B20328EBD3686890F90B
:10C14000590003F061F831460120FFF7F7F90028A4
:10C1500008BFBDE8F883686880F8A87090F85810A8
:10C16000002904BF90F87D10002928D000F1A00418
:10C170006FF00042D4E9000181EA020171EA000097
:10C180001DD00BF0BEFAD4E90023801A71EB030036
:10C1900015D3686800F1A007FCF7BEFD1549A0FBA8
:10C1A00001460BF0AEFA00197141C7E90001686859
:10C1B00090F87D0000281CBF0120FCF7E3FC022062
:10C1C000696881F870000C48006803281CBF0020D3
:10C1D000BDE8F88340F654213220FBF777FA0000DF
:10C1E000D400002090C4020055555500D6BE898E5B
:10C1F000ABAAAAAA40420F005015004038B5114C16
:10C200000022606890F869108DF800109DF8001009
:10C2100031B9416E00291CBF90F8680006F0AEFBF2
:10C22000606890F87000002818BF012807D0022825
:10C230001CBF0C2038BD00F059F8002038BD00F0BC
:10C240002DF8FAE7D400002010B518200870124825
:10C250004068B0F83F20A1F8032090F841004871F1
:10C26000C878012818BF10BD8C8800212046FBF734
:10C270008FFE002808BF10BD2046FCF7EBFB002115
:10C280002046FBF7D7FF002808BF10BD40F2114140
:10C290003220FBF71BFA0000D400002070B50C4CD4
:10C2A0000025606890F87C0030B102F049FB02F094
:10C2B00039FA606880F87C506068012180F870105D
:10C2C000A0F8BA5080F8BC50BDE8704000F08CBDBA
:10C2D000D4000020044841680020A1F8BA0081F889
:10C2E000BC0081F870007047D40000202DE9F041B7
:10C2F000FCF758FA0446FCF74FFA0146204608F0CE
:10C30000F5FA050037D000F0CBF8334C606800F147
:10C31000BD0290F898108E5C80F8B960002000F0A3
:10C3200025FC00282DD0606890F87000022803D00A
:10C3300029460020FFF702F9012E07BF012703203D
:10C34000002705202844FCF7D7FB6168002581F809
:10C350007C0040B1002F18BF402616D002F022FA10
:10C36000304602F0FBFA606890F85410032918BFB9
:10C3700002291CD10FE040F209514FF03200FBF7C7
:10C38000A5F9BDE8F041FFF789BF16F00C0F14BF07
:10C3900055265026E2E790F8981000F1BD00085CA1
:10C3A000012804D100210122084603F0D7F8606873
:10C3B000FF2180F8781080F8791080F8815080F89B
:10C3C000805080F8825080F8835080F8A850052172
:10C3D00080F87010BDE8F081D400002010B5032073
:10C3E00000F0C4FB68B10320FFF796FA0122114662
:10C3F000002003F0B3F805490B20496881F870006C
:10C4000010BDBDE81040FFF749BF0000D400002078
:10C41000252627000101000000020700D5C2020006
:10C420009DC20200675F0300675F0300675F030050
:10C43000EDC20200675F0300675F0300675F0300F0
:10C44000675F0300675F0300DDC30200675F0300EF
:10C45000675F0300675F0300ADBF020035BE0200E7
:10C4600031C00200D5B7020005B802001DB80200B5
:10C4700071B802004DC00200FDC1020058C40200A4
:10C480005CC402001CC402006CC4020064C402004C
:10C49000E9BF020069BE020055BF0200715F0300E0
:10C4A00010B582B0FCF77EF901AA694608F0B2F92E
:10C4B000009808F06DF904461C22002112300BF0A0
:10C4C000DAFA7F2084F82C00FF2184F82010E17430
:10C4D00084F82510207F054920F060002030207767
:10C4E00000208860888002B010BD0000E8000020B5
:10C4F0002DE9FF4F83B01D46DDE910890E46074642
:10C50000DDF848B0FCF74EF9044608F043F901287D
:10C5100004BF07B0BDE8F08F204601AA694608F0C5
:10C5200079F9009808F034F904461C2200211230F1
:10C530000BF0A1FA4FF0010A84F812A056B1012EB7
:10C540000DD0022E10D0062E13D04FF4457133209B
:10C55000FBF7BCF8207F40F0130020770DE0207F30
:10C5600040F01500207708E0207F40F01000207791
:10C5700003E0207F40F01200207704F11402561EE1
:10C580004046B8F1FF0F0CD03146FCF77BFB20B1E1
:10C59000307840F0020030700AE0E6213320FBF7EB
:10C5A00095F8787C30707868016811608088908098
:10C5B00084F81BB084F81EA00026E677FF2084F8DC
:10C5C0002000217F11F0040F08BF84F8250012D04D
:10C5D00004F12600411E022D18BF032D05D0BA68B4
:10C5E000136803609288828004E0059A13680360F0
:10C5F000928882800D704FF07F0084F82C0084F8C0
:10C600002D90FCF7CFF80546FCF7C6F8014601224D
:10C61000284608F074F840B12046067207B006229A
:10C62000BDE8F04F0349FCF7CBBE4FF44D7133200A
:10C63000FBF74CF851C802002DE9F04F83B01F46BC
:10C6400090460D460646DDF830A0FCF7ABF80446F0
:10C6500008F0A0F8012804BF03B0BDE8F08F204621
:10C6600001AA694608F0D6F8009808F091F8044647
:10C670001C22002112300BF0FEF94FF0010984F862
:10C68000129004F1140204F1130BFF2D0FD0594640
:10C690002846FCF7F7FA30B19BF8000040F00200A2
:10C6A0008BF800000BE0E6213320FBF70FF8707CDD
:10C6B0008BF800007068016811608088908084F8B1
:10C6C0001BA0207F002568F3000040F01A002077AF
:10C6D00084F81E90E577FF2084F8200084F8250078
:10C6E0007F2084F82C0084F82D70FCF75BF8064658
:10C6F000FCF752F801460122304608F000F840B13C
:10C700002046057203B00622BDE8F04F0349FCF74E
:10C7100057BE40F261313320FAF7D8FF51C802000A
:10C7200010B582B0FCF73EF801AA694608F072F82D
:10C73000009808F02DF804461C22002112300BF05E
:10C740009AF97F2084F82C00FF2184F82010E174EE
:10C7500084F82510207F064920F0600020302077E3
:10C760000020886008708880487002B010BD00000A
:10C77000E80000202DE9F04182B0FCF713F801AA8F
:10C78000694608F047F8009808F002F8C07F0025D5
:10C79000002804BF02B0BDE8F0812B4EB468ACB1F4
:10C7A000207F20F0600040302077777825720622C5
:10C7B00026492046FCF704FE37B16574062223495A
:10C7C00004F10900FCF7FCFDB5607570FBF7EAFFAA
:10C7D000074601AA694608F01DF8009807F0D8FF3F
:10C7E0000446C07F4FF0000880B1384607F0D2FF02
:10C7F00028B3B8F1000F05D0204605720622134970
:10C80000FCF7DEFDB58002B0BDE8F081384607F0E8
:10C81000C1FF012804BF02B0BDE8F081FBF7BCFFF7
:10C8200001460122384607F06AFF002818BF4FF082
:10C830000108DAD140F2BA213320FAF747FF40F27B
:10C84000BE213320FAF742FFE800002051C8020061
:10C850002DE9F04F8DB00C46FBF7A4FF009007F0D8
:10C86000C7FF060010D001464FF0010A01AA009848
:10C8700007F0DEFF0546FBF78FFFA84209D040F224
:10C88000B5113320FAF722FF40F2AB113320FAF74B
:10C890001DFF02A9019809F004FCE51C304607F0D1
:10C8A00077FF834600F112011C2228460BF069F83D
:10C8B0009BF81C00824E10F0100F4FF001094FF052
:10C8C00003084FF000070FD010F0040F18BF2F72AD
:10C8D0003AD19DF8182005F11C0005990BF051F88C
:10C8E0009DF8180028722FE0307828B99BF82D00A9
:10C8F000252838BF86F80090307800281ABF9DF8A8
:10C90000080002282F7218D0B3784FF0E50205F125
:10C910001C01019808F058FC2872B1780844B070E6
:10C92000019808F049FCB178884206D0A87A4FF007
:10C93000000A20F060002030A872A87AC0F34111EC
:10C94000012918BF37700CD00425257001F0E6FDD1
:10C95000002879D02078042817D048213320FAF70E
:10C96000B5FE3178002908BF86F80090ECD0012987
:10C9700002D0022906D0E7E710F0020F1CBF022008
:10C980003070E1D186F80080DEE7607B10F0100F98
:10C990003ED01C22E11C4B480AF0F3FFE27A04F17E
:10C9A0001F0149480AF0EDFF4649887A10F0040F4C
:10C9B00002D0C87CFE282FD084F800800A7A08783C
:10C9C00002F10A0210FB02F000F102006070087828
:10C9D000E0704A786271D1F80220C4F80620CA8853
:10C9E00062810A7A22730B7A04F10D0C4A7A03F8F9
:10C9F0000C208A7A04F1040012F0080F18BF0570A9
:10CA000023D00A7A1F2A40D999213320FAF75EFEF3
:10CA100049213320FAF75AFE112020700878E0707F
:10CA200084F8049048786071D1F80200C4F80600D8
:10CA3000C8886081FE2020734869C4F80D00088B07
:10CA4000A4F81100487AE07423E012F0010F1CBF33
:10CA500012F0020F0770D4D112F0040F18BF80F843
:10CA60000090CED112F0010F05D112F0020F1CBFC1
:10CA700002220270C5D112F0030F08BF80F80080B7
:10CA8000BFD096213320FAF721FE0F4909300AF072
:10CA900078FFBAF1000F04BF0DB0BDE8F08F009829
:10CAA00007F091FE38B10021009807F0F3FEB7704F
:10CAB0000DB0BDE8F08F40F2F9113320FAF706FE11
:10CAC000E8000020521300206E13002070B51646B7
:10CAD0000C46054608F058FC6074284608F051FCE6
